{
	"contracts/Lottery.sol": {
		"Lottery": {
			"abi": [
				{
					"inputs": [],
					"stateMutability": "nonpayable",
					"type": "constructor"
				},
				{
					"inputs": [],
					"name": "enter",
					"outputs": [],
					"stateMutability": "payable",
					"type": "function"
				},
				{
					"inputs": [],
					"name": "lottery",
					"outputs": [],
					"stateMutability": "nonpayable",
					"type": "function"
				},
				{
					"inputs": [],
					"name": "manager",
					"outputs": [
						{
							"internalType": "address",
							"name": "",
							"type": "address"
						}
					],
					"stateMutability": "view",
					"type": "function"
				},
				{
					"inputs": [],
					"name": "pickWinner",
					"outputs": [],
					"stateMutability": "nonpayable",
					"type": "function"
				},
				{
					"inputs": [
						{
							"internalType": "uint256",
							"name": "",
							"type": "uint256"
						}
					],
					"name": "players",
					"outputs": [
						{
							"internalType": "address payable",
							"name": "",
							"type": "address"
						}
					],
					"stateMutability": "view",
					"type": "function"
				}
			],
			"devdoc": {
				"kind": "dev",
				"methods": {},
				"version": 1
			},
			"evm": {
				"assembly": "    /* \"contracts/Lottery.sol\":66:1075  contract Lottery {... */\n  mstore(0x40, 0x80)\n    /* \"contracts/Lottery.sol\":184:235  constructor() {... */\n  callvalue\n  dup1\n  iszero\n  tag_1\n  jumpi\n  0x00\n  dup1\n  revert\ntag_1:\n  pop\n    /* \"contracts/Lottery.sol\":218:228  msg.sender */\n  caller\n    /* \"contracts/Lottery.sol\":208:215  manager */\n  0x00\n  dup1\n    /* \"contracts/Lottery.sol\":208:228  manager = msg.sender */\n  0x0100\n  exp\n  dup2\n  sload\n  dup2\n  0xffffffffffffffffffffffffffffffffffffffff\n  mul\n  not\n  and\n  swap1\n  dup4\n  0xffffffffffffffffffffffffffffffffffffffff\n  and\n  mul\n  or\n  swap1\n  sstore\n  pop\n    /* \"contracts/Lottery.sol\":66:1075  contract Lottery {... */\n  dataSize(sub_0)\n  dup1\n  dataOffset(sub_0)\n  0x00\n  codecopy\n  0x00\n  return\nstop\n\nsub_0: assembly {\n        /* \"contracts/Lottery.sol\":66:1075  contract Lottery {... */\n      mstore(0x40, 0x80)\n      jumpi(tag_1, lt(calldatasize, 0x04))\n      shr(0xe0, calldataload(0x00))\n      dup1\n      0x481c6a75\n      eq\n      tag_2\n      jumpi\n      dup1\n      0x5d495aea\n      eq\n      tag_3\n      jumpi\n      dup1\n      0xba13a572\n      eq\n      tag_4\n      jumpi\n      dup1\n      0xe97dcb62\n      eq\n      tag_5\n      jumpi\n      dup1\n      0xf71d96cb\n      eq\n      tag_6\n      jumpi\n    tag_1:\n      0x00\n      dup1\n      revert\n        /* \"contracts/Lottery.sol\":117:139  address public manager */\n    tag_2:\n      callvalue\n      dup1\n      iszero\n      tag_7\n      jumpi\n      0x00\n      dup1\n      revert\n    tag_7:\n      pop\n      tag_8\n      tag_9\n      jump\t// in\n    tag_8:\n      mload(0x40)\n      tag_10\n      swap2\n      swap1\n      tag_11\n      jump\t// in\n    tag_10:\n      mload(0x40)\n      dup1\n      swap2\n      sub\n      swap1\n      return\n        /* \"contracts/Lottery.sol\":788:983  function pickWinner() public restricted {... */\n    tag_3:\n      callvalue\n      dup1\n      iszero\n      tag_12\n      jumpi\n      0x00\n      dup1\n      revert\n    tag_12:\n      pop\n      tag_13\n      tag_14\n      jump\t// in\n    tag_13:\n      stop\n        /* \"contracts/Lottery.sol\":302:365  function lottery() public {... */\n    tag_4:\n      callvalue\n      dup1\n      iszero\n      tag_15\n      jumpi\n      0x00\n      dup1\n      revert\n    tag_15:\n      pop\n      tag_16\n      tag_17\n      jump\t// in\n    tag_16:\n      stop\n        /* \"contracts/Lottery.sol\":400:629  function enter() public payable {... */\n    tag_5:\n      tag_18\n      tag_19\n      jump\t// in\n    tag_18:\n      stop\n        /* \"contracts/Lottery.sol\":145:177  address payable[] public players */\n    tag_6:\n      callvalue\n      dup1\n      iszero\n      tag_20\n      jumpi\n      0x00\n      dup1\n      revert\n    tag_20:\n      pop\n      tag_21\n      0x04\n      dup1\n      calldatasize\n      sub\n      dup2\n      add\n      swap1\n      tag_22\n      swap2\n      swap1\n      tag_23\n      jump\t// in\n    tag_22:\n      tag_24\n      jump\t// in\n    tag_21:\n      mload(0x40)\n      tag_25\n      swap2\n      swap1\n      tag_26\n      jump\t// in\n    tag_25:\n      mload(0x40)\n      dup1\n      swap2\n      sub\n      swap1\n      return\n        /* \"contracts/Lottery.sol\":117:139  address public manager */\n    tag_9:\n      0x00\n      dup1\n      sload\n      swap1\n      0x0100\n      exp\n      swap1\n      div\n      0xffffffffffffffffffffffffffffffffffffffff\n      and\n      dup2\n      jump\t// out\n        /* \"contracts/Lottery.sol\":788:983  function pickWinner() public restricted {... */\n    tag_14:\n        /* \"contracts/Lottery.sol\":1047:1054  manager */\n      0x00\n      dup1\n      sload\n      swap1\n      0x0100\n      exp\n      swap1\n      div\n      0xffffffffffffffffffffffffffffffffffffffff\n      and\n        /* \"contracts/Lottery.sol\":1033:1054  msg.sender == manager */\n      0xffffffffffffffffffffffffffffffffffffffff\n      and\n        /* \"contracts/Lottery.sol\":1033:1043  msg.sender */\n      caller\n        /* \"contracts/Lottery.sol\":1033:1054  msg.sender == manager */\n      0xffffffffffffffffffffffffffffffffffffffff\n      and\n      eq\n        /* \"contracts/Lottery.sol\":1025:1055  require(msg.sender == manager) */\n      tag_28\n      jumpi\n      0x00\n      dup1\n      revert\n    tag_28:\n        /* \"contracts/Lottery.sol\":838:848  uint index */\n      0x00\n        /* \"contracts/Lottery.sol\":862:869  players */\n      0x01\n        /* \"contracts/Lottery.sol\":862:876  players.length */\n      dup1\n      sload\n      swap1\n      pop\n        /* \"contracts/Lottery.sol\":851:859  random() */\n      tag_30\n        /* \"contracts/Lottery.sol\":851:857  random */\n      tag_31\n        /* \"contracts/Lottery.sol\":851:859  random() */\n      jump\t// in\n    tag_30:\n        /* \"contracts/Lottery.sol\":851:876  random() % players.length */\n      tag_32\n      swap2\n      swap1\n      tag_33\n      jump\t// in\n    tag_32:\n        /* \"contracts/Lottery.sol\":838:876  uint index = random() % players.length */\n      swap1\n      pop\n        /* \"contracts/Lottery.sol\":886:893  players */\n      0x01\n        /* \"contracts/Lottery.sol\":894:899  index */\n      dup2\n        /* \"contracts/Lottery.sol\":886:900  players[index] */\n      dup2\n      sload\n      dup2\n      lt\n      tag_34\n      jumpi\n      tag_35\n      tag_36\n      jump\t// in\n    tag_35:\n    tag_34:\n      swap1\n      0x00\n      mstore\n      keccak256(0x00, 0x20)\n      add\n      0x00\n      swap1\n      sload\n      swap1\n      0x0100\n      exp\n      swap1\n      div\n      0xffffffffffffffffffffffffffffffffffffffff\n      and\n        /* \"contracts/Lottery.sol\":886:909  players[index].transfer */\n      0xffffffffffffffffffffffffffffffffffffffff\n      and\n        /* \"contracts/Lottery.sol\":886:932  players[index].transfer(address(this).balance) */\n      0x08fc\n        /* \"contracts/Lottery.sol\":910:931  address(this).balance */\n      selfbalance\n        /* \"contracts/Lottery.sol\":886:932  players[index].transfer(address(this).balance) */\n      swap1\n      dup2\n      iszero\n      mul\n      swap1\n      mload(0x40)\n      0x00\n      mload(0x40)\n      dup1\n      dup4\n      sub\n      dup2\n      dup6\n      dup9\n      dup9\n      call\n      swap4\n      pop\n      pop\n      pop\n      pop\n      iszero\n      dup1\n      iszero\n      tag_39\n      jumpi\n      returndatasize\n      0x00\n      dup1\n      returndatacopy\n      revert(0x00, returndatasize)\n    tag_39:\n      pop\n        /* \"contracts/Lottery.sol\":974:975  0 */\n      0x00\n        /* \"contracts/Lottery.sol\":952:976  new address payable[](0) */\n      0xffffffffffffffff\n      dup2\n      gt\n      iszero\n      tag_40\n      jumpi\n      tag_41\n      tag_42\n      jump\t// in\n    tag_41:\n    tag_40:\n      mload(0x40)\n      swap1\n      dup1\n      dup3\n      mstore\n      dup1\n      0x20\n      mul\n      0x20\n      add\n      dup3\n      add\n      0x40\n      mstore\n      dup1\n      iszero\n      tag_43\n      jumpi\n      dup2\n      0x20\n      add\n      0x20\n      dup3\n      mul\n      dup1\n      calldatasize\n      dup4\n      calldatacopy\n      dup1\n      dup3\n      add\n      swap2\n      pop\n      pop\n      swap1\n      pop\n    tag_43:\n      pop\n        /* \"contracts/Lottery.sol\":942:949  players */\n      0x01\n        /* \"contracts/Lottery.sol\":942:976  players = new address payable[](0) */\n      swap1\n      dup1\n      mload\n      swap1\n      0x20\n      add\n      swap1\n      tag_44\n      swap3\n      swap2\n      swap1\n      tag_45\n      jump\t// in\n    tag_44:\n      pop\n        /* \"contracts/Lottery.sol\":828:983  {... */\n      pop\n        /* \"contracts/Lottery.sol\":788:983  function pickWinner() public restricted {... */\n      jump\t// out\n        /* \"contracts/Lottery.sol\":302:365  function lottery() public {... */\n    tag_17:\n        /* \"contracts/Lottery.sol\":348:358  msg.sender */\n      caller\n        /* \"contracts/Lottery.sol\":338:345  manager */\n      0x00\n      dup1\n        /* \"contracts/Lottery.sol\":338:358  manager = msg.sender */\n      0x0100\n      exp\n      dup2\n      sload\n      dup2\n      0xffffffffffffffffffffffffffffffffffffffff\n      mul\n      not\n      and\n      swap1\n      dup4\n      0xffffffffffffffffffffffffffffffffffffffff\n      and\n      mul\n      or\n      swap1\n      sstore\n      pop\n        /* \"contracts/Lottery.sol\":302:365  function lottery() public {... */\n      jump\t// out\n        /* \"contracts/Lottery.sol\":400:629  function enter() public payable {... */\n    tag_19:\n        /* \"contracts/Lottery.sol\":507:517  0.01 ether */\n      0x2386f26fc10000\n        /* \"contracts/Lottery.sol\":495:504  msg.value */\n      callvalue\n        /* \"contracts/Lottery.sol\":495:517  msg.value > 0.01 ether */\n      gt\n        /* \"contracts/Lottery.sol\":487:518  require(msg.value > 0.01 ether) */\n      tag_48\n      jumpi\n      0x00\n      dup1\n      revert\n    tag_48:\n        /* \"contracts/Lottery.sol\":589:596  players */\n      0x01\n        /* \"contracts/Lottery.sol\":610:620  msg.sender */\n      caller\n        /* \"contracts/Lottery.sol\":589:622  players.push(payable(msg.sender)) */\n      swap1\n      dup1\n      0x01\n      dup2\n      sload\n      add\n      dup1\n      dup3\n      sstore\n      dup1\n      swap2\n      pop\n      pop\n      0x01\n      swap1\n      sub\n      swap1\n      0x00\n      mstore\n      keccak256(0x00, 0x20)\n      add\n      0x00\n      swap1\n      swap2\n      swap1\n      swap2\n      swap1\n      swap2\n      0x0100\n      exp\n      dup2\n      sload\n      dup2\n      0xffffffffffffffffffffffffffffffffffffffff\n      mul\n      not\n      and\n      swap1\n      dup4\n      0xffffffffffffffffffffffffffffffffffffffff\n      and\n      mul\n      or\n      swap1\n      sstore\n      pop\n        /* \"contracts/Lottery.sol\":400:629  function enter() public payable {... */\n      jump\t// out\n        /* \"contracts/Lottery.sol\":145:177  address payable[] public players */\n    tag_24:\n      0x01\n      dup2\n      dup2\n      sload\n      dup2\n      lt\n      tag_50\n      jumpi\n      0x00\n      dup1\n      revert\n    tag_50:\n      swap1\n      0x00\n      mstore\n      keccak256(0x00, 0x20)\n      add\n      0x00\n      swap2\n      pop\n      sload\n      swap1\n      0x0100\n      exp\n      swap1\n      div\n      0xffffffffffffffffffffffffffffffffffffffff\n      and\n      dup2\n      jump\t// out\n        /* \"contracts/Lottery.sol\":635:782  function random() private view returns (uint) {... */\n    tag_31:\n        /* \"contracts/Lottery.sol\":675:679  uint */\n      0x00\n        /* \"contracts/Lottery.sol\":730:746  block.difficulty */\n      difficulty\n        /* \"contracts/Lottery.sol\":748:763  block.timestamp */\n      timestamp\n        /* \"contracts/Lottery.sol\":765:772  players */\n      0x01\n        /* \"contracts/Lottery.sol\":713:773  abi.encodePacked(block.difficulty, block.timestamp, players) */\n      add(0x20, mload(0x40))\n      tag_53\n      swap4\n      swap3\n      swap2\n      swap1\n      tag_54\n      jump\t// in\n    tag_53:\n      mload(0x40)\n      0x20\n      dup2\n      dup4\n      sub\n      sub\n      dup2\n      mstore\n      swap1\n      0x40\n      mstore\n        /* \"contracts/Lottery.sol\":703:774  keccak256(abi.encodePacked(block.difficulty, block.timestamp, players)) */\n      dup1\n      mload\n      swap1\n      0x20\n      add\n      keccak256\n        /* \"contracts/Lottery.sol\":698:775  uint(keccak256(abi.encodePacked(block.difficulty, block.timestamp, players))) */\n      0x00\n      shr\n        /* \"contracts/Lottery.sol\":691:775  return uint(keccak256(abi.encodePacked(block.difficulty, block.timestamp, players))) */\n      swap1\n      pop\n        /* \"contracts/Lottery.sol\":635:782  function random() private view returns (uint) {... */\n      swap1\n      jump\t// out\n    tag_45:\n      dup3\n      dup1\n      sload\n      dup3\n      dup3\n      sstore\n      swap1\n      0x00\n      mstore\n      keccak256(0x00, 0x20)\n      swap1\n      dup2\n      add\n      swap3\n      dup3\n      iszero\n      tag_55\n      jumpi\n      swap2\n      0x20\n      mul\n      dup3\n      add\n    tag_56:\n      dup3\n      dup2\n      gt\n      iszero\n      tag_57\n      jumpi\n      dup3\n      mload\n      dup3\n      exp(0x0100, 0x00)\n      dup2\n      sload\n      dup2\n      0xffffffffffffffffffffffffffffffffffffffff\n      mul\n      not\n      and\n      swap1\n      dup4\n      0xffffffffffffffffffffffffffffffffffffffff\n      and\n      mul\n      or\n      swap1\n      sstore\n      pop\n      swap2\n      0x20\n      add\n      swap2\n      swap1\n      0x01\n      add\n      swap1\n      jump(tag_56)\n    tag_57:\n    tag_55:\n      pop\n      swap1\n      pop\n      tag_58\n      swap2\n      swap1\n      tag_59\n      jump\t// in\n    tag_58:\n      pop\n      swap1\n      jump\t// out\n    tag_59:\n    tag_60:\n      dup1\n      dup3\n      gt\n      iszero\n      tag_61\n      jumpi\n      0x00\n      dup2\n      0x00\n      swap1\n      sstore\n      pop\n      0x01\n      add\n      jump(tag_60)\n    tag_61:\n      pop\n      swap1\n      jump\t// out\n        /* \"#utility.yul\":7:133   */\n    tag_62:\n        /* \"#utility.yul\":44:51   */\n      0x00\n        /* \"#utility.yul\":84:126   */\n      0xffffffffffffffffffffffffffffffffffffffff\n        /* \"#utility.yul\":77:82   */\n      dup3\n        /* \"#utility.yul\":73:127   */\n      and\n        /* \"#utility.yul\":62:127   */\n      swap1\n      pop\n        /* \"#utility.yul\":7:133   */\n      swap2\n      swap1\n      pop\n      jump\t// out\n        /* \"#utility.yul\":139:235   */\n    tag_63:\n        /* \"#utility.yul\":176:183   */\n      0x00\n        /* \"#utility.yul\":205:229   */\n      tag_90\n        /* \"#utility.yul\":223:228   */\n      dup3\n        /* \"#utility.yul\":205:229   */\n      tag_62\n      jump\t// in\n    tag_90:\n        /* \"#utility.yul\":194:229   */\n      swap1\n      pop\n        /* \"#utility.yul\":139:235   */\n      swap2\n      swap1\n      pop\n      jump\t// out\n        /* \"#utility.yul\":241:359   */\n    tag_64:\n        /* \"#utility.yul\":328:352   */\n      tag_92\n        /* \"#utility.yul\":346:351   */\n      dup2\n        /* \"#utility.yul\":328:352   */\n      tag_63\n      jump\t// in\n    tag_92:\n        /* \"#utility.yul\":323:326   */\n      dup3\n        /* \"#utility.yul\":316:353   */\n      mstore\n        /* \"#utility.yul\":241:359   */\n      pop\n      pop\n      jump\t// out\n        /* \"#utility.yul\":365:587   */\n    tag_11:\n        /* \"#utility.yul\":458:462   */\n      0x00\n        /* \"#utility.yul\":496:498   */\n      0x20\n        /* \"#utility.yul\":485:494   */\n      dup3\n        /* \"#utility.yul\":481:499   */\n      add\n        /* \"#utility.yul\":473:499   */\n      swap1\n      pop\n        /* \"#utility.yul\":509:580   */\n      tag_94\n        /* \"#utility.yul\":577:578   */\n      0x00\n        /* \"#utility.yul\":566:575   */\n      dup4\n        /* \"#utility.yul\":562:579   */\n      add\n        /* \"#utility.yul\":553:559   */\n      dup5\n        /* \"#utility.yul\":509:580   */\n      tag_64\n      jump\t// in\n    tag_94:\n        /* \"#utility.yul\":365:587   */\n      swap3\n      swap2\n      pop\n      pop\n      jump\t// out\n        /* \"#utility.yul\":674:791   */\n    tag_66:\n        /* \"#utility.yul\":783:784   */\n      0x00\n        /* \"#utility.yul\":780:781   */\n      dup1\n        /* \"#utility.yul\":773:785   */\n      revert\n        /* \"#utility.yul\":920:997   */\n    tag_68:\n        /* \"#utility.yul\":957:964   */\n      0x00\n        /* \"#utility.yul\":986:991   */\n      dup2\n        /* \"#utility.yul\":975:991   */\n      swap1\n      pop\n        /* \"#utility.yul\":920:997   */\n      swap2\n      swap1\n      pop\n      jump\t// out\n        /* \"#utility.yul\":1003:1125   */\n    tag_69:\n        /* \"#utility.yul\":1076:1100   */\n      tag_100\n        /* \"#utility.yul\":1094:1099   */\n      dup2\n        /* \"#utility.yul\":1076:1100   */\n      tag_68\n      jump\t// in\n    tag_100:\n        /* \"#utility.yul\":1069:1074   */\n      dup2\n        /* \"#utility.yul\":1066:1101   */\n      eq\n        /* \"#utility.yul\":1056:1119   */\n      tag_101\n      jumpi\n        /* \"#utility.yul\":1115:1116   */\n      0x00\n        /* \"#utility.yul\":1112:1113   */\n      dup1\n        /* \"#utility.yul\":1105:1117   */\n      revert\n        /* \"#utility.yul\":1056:1119   */\n    tag_101:\n        /* \"#utility.yul\":1003:1125   */\n      pop\n      jump\t// out\n        /* \"#utility.yul\":1131:1270   */\n    tag_70:\n        /* \"#utility.yul\":1177:1182   */\n      0x00\n        /* \"#utility.yul\":1215:1221   */\n      dup2\n        /* \"#utility.yul\":1202:1222   */\n      calldataload\n        /* \"#utility.yul\":1193:1222   */\n      swap1\n      pop\n        /* \"#utility.yul\":1231:1264   */\n      tag_103\n        /* \"#utility.yul\":1258:1263   */\n      dup2\n        /* \"#utility.yul\":1231:1264   */\n      tag_69\n      jump\t// in\n    tag_103:\n        /* \"#utility.yul\":1131:1270   */\n      swap3\n      swap2\n      pop\n      pop\n      jump\t// out\n        /* \"#utility.yul\":1276:1605   */\n    tag_23:\n        /* \"#utility.yul\":1335:1341   */\n      0x00\n        /* \"#utility.yul\":1384:1386   */\n      0x20\n        /* \"#utility.yul\":1372:1381   */\n      dup3\n        /* \"#utility.yul\":1363:1370   */\n      dup5\n        /* \"#utility.yul\":1359:1382   */\n      sub\n        /* \"#utility.yul\":1355:1387   */\n      slt\n        /* \"#utility.yul\":1352:1471   */\n      iszero\n      tag_105\n      jumpi\n        /* \"#utility.yul\":1390:1469   */\n      tag_106\n      tag_66\n      jump\t// in\n    tag_106:\n        /* \"#utility.yul\":1352:1471   */\n    tag_105:\n        /* \"#utility.yul\":1510:1511   */\n      0x00\n        /* \"#utility.yul\":1535:1588   */\n      tag_107\n        /* \"#utility.yul\":1580:1587   */\n      dup5\n        /* \"#utility.yul\":1571:1577   */\n      dup3\n        /* \"#utility.yul\":1560:1569   */\n      dup6\n        /* \"#utility.yul\":1556:1578   */\n      add\n        /* \"#utility.yul\":1535:1588   */\n      tag_70\n      jump\t// in\n    tag_107:\n        /* \"#utility.yul\":1525:1588   */\n      swap2\n      pop\n        /* \"#utility.yul\":1481:1598   */\n      pop\n        /* \"#utility.yul\":1276:1605   */\n      swap3\n      swap2\n      pop\n      pop\n      jump\t// out\n        /* \"#utility.yul\":1611:1715   */\n    tag_71:\n        /* \"#utility.yul\":1656:1663   */\n      0x00\n        /* \"#utility.yul\":1685:1709   */\n      tag_109\n        /* \"#utility.yul\":1703:1708   */\n      dup3\n        /* \"#utility.yul\":1685:1709   */\n      tag_62\n      jump\t// in\n    tag_109:\n        /* \"#utility.yul\":1674:1709   */\n      swap1\n      pop\n        /* \"#utility.yul\":1611:1715   */\n      swap2\n      swap1\n      pop\n      jump\t// out\n        /* \"#utility.yul\":1721:1863   */\n    tag_72:\n        /* \"#utility.yul\":1824:1856   */\n      tag_111\n        /* \"#utility.yul\":1850:1855   */\n      dup2\n        /* \"#utility.yul\":1824:1856   */\n      tag_71\n      jump\t// in\n    tag_111:\n        /* \"#utility.yul\":1819:1822   */\n      dup3\n        /* \"#utility.yul\":1812:1857   */\n      mstore\n        /* \"#utility.yul\":1721:1863   */\n      pop\n      pop\n      jump\t// out\n        /* \"#utility.yul\":1869:2123   */\n    tag_26:\n        /* \"#utility.yul\":1978:1982   */\n      0x00\n        /* \"#utility.yul\":2016:2018   */\n      0x20\n        /* \"#utility.yul\":2005:2014   */\n      dup3\n        /* \"#utility.yul\":2001:2019   */\n      add\n        /* \"#utility.yul\":1993:2019   */\n      swap1\n      pop\n        /* \"#utility.yul\":2029:2116   */\n      tag_113\n        /* \"#utility.yul\":2113:2114   */\n      0x00\n        /* \"#utility.yul\":2102:2111   */\n      dup4\n        /* \"#utility.yul\":2098:2115   */\n      add\n        /* \"#utility.yul\":2089:2095   */\n      dup5\n        /* \"#utility.yul\":2029:2116   */\n      tag_72\n      jump\t// in\n    tag_113:\n        /* \"#utility.yul\":1869:2123   */\n      swap3\n      swap2\n      pop\n      pop\n      jump\t// out\n        /* \"#utility.yul\":2129:2309   */\n    tag_73:\n        /* \"#utility.yul\":2177:2254   */\n      0x4e487b7100000000000000000000000000000000000000000000000000000000\n        /* \"#utility.yul\":2174:2175   */\n      0x00\n        /* \"#utility.yul\":2167:2255   */\n      mstore\n        /* \"#utility.yul\":2274:2278   */\n      0x12\n        /* \"#utility.yul\":2271:2272   */\n      0x04\n        /* \"#utility.yul\":2264:2279   */\n      mstore\n        /* \"#utility.yul\":2298:2302   */\n      0x24\n        /* \"#utility.yul\":2295:2296   */\n      0x00\n        /* \"#utility.yul\":2288:2303   */\n      revert\n        /* \"#utility.yul\":2315:2491   */\n    tag_33:\n        /* \"#utility.yul\":2347:2348   */\n      0x00\n        /* \"#utility.yul\":2364:2384   */\n      tag_116\n        /* \"#utility.yul\":2382:2383   */\n      dup3\n        /* \"#utility.yul\":2364:2384   */\n      tag_68\n      jump\t// in\n    tag_116:\n        /* \"#utility.yul\":2359:2384   */\n      swap2\n      pop\n        /* \"#utility.yul\":2398:2418   */\n      tag_117\n        /* \"#utility.yul\":2416:2417   */\n      dup4\n        /* \"#utility.yul\":2398:2418   */\n      tag_68\n      jump\t// in\n    tag_117:\n        /* \"#utility.yul\":2393:2418   */\n      swap3\n      pop\n        /* \"#utility.yul\":2437:2438   */\n      dup3\n        /* \"#utility.yul\":2427:2462   */\n      tag_118\n      jumpi\n        /* \"#utility.yul\":2442:2460   */\n      tag_119\n      tag_73\n      jump\t// in\n    tag_119:\n        /* \"#utility.yul\":2427:2462   */\n    tag_118:\n        /* \"#utility.yul\":2483:2484   */\n      dup3\n        /* \"#utility.yul\":2480:2481   */\n      dup3\n        /* \"#utility.yul\":2476:2485   */\n      mod\n        /* \"#utility.yul\":2471:2485   */\n      swap1\n      pop\n        /* \"#utility.yul\":2315:2491   */\n      swap3\n      swap2\n      pop\n      pop\n      jump\t// out\n        /* \"#utility.yul\":2497:2677   */\n    tag_36:\n        /* \"#utility.yul\":2545:2622   */\n      0x4e487b7100000000000000000000000000000000000000000000000000000000\n        /* \"#utility.yul\":2542:2543   */\n      0x00\n        /* \"#utility.yul\":2535:2623   */\n      mstore\n        /* \"#utility.yul\":2642:2646   */\n      0x32\n        /* \"#utility.yul\":2639:2640   */\n      0x04\n        /* \"#utility.yul\":2632:2647   */\n      mstore\n        /* \"#utility.yul\":2666:2670   */\n      0x24\n        /* \"#utility.yul\":2663:2664   */\n      0x00\n        /* \"#utility.yul\":2656:2671   */\n      revert\n        /* \"#utility.yul\":2683:2863   */\n    tag_42:\n        /* \"#utility.yul\":2731:2808   */\n      0x4e487b7100000000000000000000000000000000000000000000000000000000\n        /* \"#utility.yul\":2728:2729   */\n      0x00\n        /* \"#utility.yul\":2721:2809   */\n      mstore\n        /* \"#utility.yul\":2828:2832   */\n      0x41\n        /* \"#utility.yul\":2825:2826   */\n      0x04\n        /* \"#utility.yul\":2818:2833   */\n      mstore\n        /* \"#utility.yul\":2852:2856   */\n      0x24\n        /* \"#utility.yul\":2849:2850   */\n      0x00\n        /* \"#utility.yul\":2842:2857   */\n      revert\n        /* \"#utility.yul\":2869:2948   */\n    tag_74:\n        /* \"#utility.yul\":2908:2915   */\n      0x00\n        /* \"#utility.yul\":2937:2942   */\n      dup2\n        /* \"#utility.yul\":2926:2942   */\n      swap1\n      pop\n        /* \"#utility.yul\":2869:2948   */\n      swap2\n      swap1\n      pop\n      jump\t// out\n        /* \"#utility.yul\":2954:3111   */\n    tag_75:\n        /* \"#utility.yul\":3059:3104   */\n      tag_124\n        /* \"#utility.yul\":3079:3103   */\n      tag_125\n        /* \"#utility.yul\":3097:3102   */\n      dup3\n        /* \"#utility.yul\":3079:3103   */\n      tag_68\n      jump\t// in\n    tag_125:\n        /* \"#utility.yul\":3059:3104   */\n      tag_74\n      jump\t// in\n    tag_124:\n        /* \"#utility.yul\":3054:3057   */\n      dup3\n        /* \"#utility.yul\":3047:3105   */\n      mstore\n        /* \"#utility.yul\":2954:3111   */\n      pop\n      pop\n      jump\t// out\n        /* \"#utility.yul\":3117:3236   */\n    tag_76:\n        /* \"#utility.yul\":3189:3195   */\n      0x00\n        /* \"#utility.yul\":3223:3228   */\n      dup2\n        /* \"#utility.yul\":3217:3229   */\n      sload\n        /* \"#utility.yul\":3207:3229   */\n      swap1\n      pop\n        /* \"#utility.yul\":3117:3236   */\n      swap2\n      swap1\n      pop\n      jump\t// out\n        /* \"#utility.yul\":3242:3413   */\n    tag_77:\n        /* \"#utility.yul\":3367:3378   */\n      0x00\n        /* \"#utility.yul\":3404:3407   */\n      dup2\n        /* \"#utility.yul\":3389:3407   */\n      swap1\n      pop\n        /* \"#utility.yul\":3242:3413   */\n      swap3\n      swap2\n      pop\n      pop\n      jump\t// out\n        /* \"#utility.yul\":3419:3583   */\n    tag_78:\n        /* \"#utility.yul\":3491:3495   */\n      0x00\n        /* \"#utility.yul\":3514:3517   */\n      dup2\n        /* \"#utility.yul\":3506:3517   */\n      swap1\n      pop\n        /* \"#utility.yul\":3537:3540   */\n      dup2\n        /* \"#utility.yul\":3534:3535   */\n      0x00\n        /* \"#utility.yul\":3527:3541   */\n      mstore\n        /* \"#utility.yul\":3571:3575   */\n      0x20\n        /* \"#utility.yul\":3568:3569   */\n      0x00\n        /* \"#utility.yul\":3558:3576   */\n      keccak256\n        /* \"#utility.yul\":3550:3576   */\n      swap1\n      pop\n        /* \"#utility.yul\":3419:3583   */\n      swap2\n      swap1\n      pop\n      jump\t// out\n        /* \"#utility.yul\":3589:3729   */\n    tag_79:\n        /* \"#utility.yul\":3690:3722   */\n      tag_130\n        /* \"#utility.yul\":3716:3721   */\n      dup2\n        /* \"#utility.yul\":3690:3722   */\n      tag_71\n      jump\t// in\n    tag_130:\n        /* \"#utility.yul\":3685:3688   */\n      dup3\n        /* \"#utility.yul\":3678:3723   */\n      mstore\n        /* \"#utility.yul\":3589:3729   */\n      pop\n      pop\n      jump\t// out\n        /* \"#utility.yul\":3735:3962   */\n    tag_80:\n        /* \"#utility.yul\":3828:3838   */\n      0x00\n        /* \"#utility.yul\":3849:3919   */\n      tag_132\n        /* \"#utility.yul\":3915:3918   */\n      dup4\n        /* \"#utility.yul\":3907:3913   */\n      dup4\n        /* \"#utility.yul\":3849:3919   */\n      tag_79\n      jump\t// in\n    tag_132:\n        /* \"#utility.yul\":3951:3955   */\n      0x20\n        /* \"#utility.yul\":3946:3949   */\n      dup4\n        /* \"#utility.yul\":3942:3956   */\n      add\n        /* \"#utility.yul\":3928:3956   */\n      swap1\n      pop\n        /* \"#utility.yul\":3735:3962   */\n      swap3\n      swap2\n      pop\n      pop\n      jump\t// out\n        /* \"#utility.yul\":3968:4070   */\n    tag_81:\n        /* \"#utility.yul\":4010:4018   */\n      0x00\n        /* \"#utility.yul\":4057:4062   */\n      dup2\n        /* \"#utility.yul\":4054:4055   */\n      0x00\n        /* \"#utility.yul\":4050:4063   */\n      shr\n        /* \"#utility.yul\":4029:4063   */\n      swap1\n      pop\n        /* \"#utility.yul\":3968:4070   */\n      swap2\n      swap1\n      pop\n      jump\t// out\n        /* \"#utility.yul\":4076:4223   */\n    tag_82:\n        /* \"#utility.yul\":4134:4141   */\n      0x00\n        /* \"#utility.yul\":4174:4216   */\n      0xffffffffffffffffffffffffffffffffffffffff\n        /* \"#utility.yul\":4167:4172   */\n      dup3\n        /* \"#utility.yul\":4163:4217   */\n      and\n        /* \"#utility.yul\":4152:4217   */\n      swap1\n      pop\n        /* \"#utility.yul\":4076:4223   */\n      swap2\n      swap1\n      pop\n      jump\t// out\n        /* \"#utility.yul\":4229:4411   */\n    tag_83:\n        /* \"#utility.yul\":4306:4311   */\n      0x00\n        /* \"#utility.yul\":4331:4405   */\n      tag_136\n        /* \"#utility.yul\":4370:4404   */\n      tag_137\n        /* \"#utility.yul\":4393:4403   */\n      dup4\n        /* \"#utility.yul\":4370:4404   */\n      tag_81\n      jump\t// in\n    tag_137:\n        /* \"#utility.yul\":4331:4405   */\n      tag_82\n      jump\t// in\n    tag_136:\n        /* \"#utility.yul\":4322:4405   */\n      swap1\n      pop\n        /* \"#utility.yul\":4229:4411   */\n      swap2\n      swap1\n      pop\n      jump\t// out\n        /* \"#utility.yul\":4417:4577   */\n    tag_84:\n        /* \"#utility.yul\":4480:4485   */\n      0x00\n        /* \"#utility.yul\":4505:4570   */\n      tag_139\n        /* \"#utility.yul\":4564:4568   */\n      dup3\n        /* \"#utility.yul\":4558:4569   */\n      sload\n        /* \"#utility.yul\":4505:4570   */\n      tag_83\n      jump\t// in\n    tag_139:\n        /* \"#utility.yul\":4496:4570   */\n      swap1\n      pop\n        /* \"#utility.yul\":4417:4577   */\n      swap2\n      swap1\n      pop\n      jump\t// out\n        /* \"#utility.yul\":4583:4701   */\n    tag_85:\n        /* \"#utility.yul\":4658:4662   */\n      0x00\n        /* \"#utility.yul\":4690:4694   */\n      0x01\n        /* \"#utility.yul\":4685:4688   */\n      dup3\n        /* \"#utility.yul\":4681:4695   */\n      add\n        /* \"#utility.yul\":4673:4695   */\n      swap1\n      pop\n        /* \"#utility.yul\":4583:4701   */\n      swap2\n      swap1\n      pop\n      jump\t// out\n        /* \"#utility.yul\":4753:5620   */\n    tag_86:\n        /* \"#utility.yul\":4903:4906   */\n      0x00\n        /* \"#utility.yul\":4932:4991   */\n      tag_142\n        /* \"#utility.yul\":4985:4990   */\n      dup3\n        /* \"#utility.yul\":4932:4991   */\n      tag_76\n      jump\t// in\n    tag_142:\n        /* \"#utility.yul\":5007:5119   */\n      tag_143\n        /* \"#utility.yul\":5112:5118   */\n      dup2\n        /* \"#utility.yul\":5107:5110   */\n      dup6\n        /* \"#utility.yul\":5007:5119   */\n      tag_77\n      jump\t// in\n    tag_143:\n        /* \"#utility.yul\":5000:5119   */\n      swap4\n      pop\n        /* \"#utility.yul\":5143:5204   */\n      tag_144\n        /* \"#utility.yul\":5198:5203   */\n      dup4\n        /* \"#utility.yul\":5143:5204   */\n      tag_78\n      jump\t// in\n    tag_144:\n        /* \"#utility.yul\":5227:5234   */\n      dup1\n        /* \"#utility.yul\":5258:5259   */\n      0x00\n        /* \"#utility.yul\":5243:5595   */\n    tag_145:\n        /* \"#utility.yul\":5268:5274   */\n      dup4\n        /* \"#utility.yul\":5265:5266   */\n      dup2\n        /* \"#utility.yul\":5262:5275   */\n      lt\n        /* \"#utility.yul\":5243:5595   */\n      iszero\n      tag_147\n      jumpi\n        /* \"#utility.yul\":5338:5390   */\n      tag_148\n        /* \"#utility.yul\":5383:5389   */\n      dup3\n        /* \"#utility.yul\":5338:5390   */\n      tag_84\n      jump\t// in\n    tag_148:\n        /* \"#utility.yul\":5410:5497   */\n      tag_149\n        /* \"#utility.yul\":5493:5496   */\n      dup9\n        /* \"#utility.yul\":5478:5491   */\n      dup3\n        /* \"#utility.yul\":5410:5497   */\n      tag_80\n      jump\t// in\n    tag_149:\n        /* \"#utility.yul\":5403:5497   */\n      swap8\n      pop\n        /* \"#utility.yul\":5520:5585   */\n      tag_150\n        /* \"#utility.yul\":5578:5584   */\n      dup4\n        /* \"#utility.yul\":5520:5585   */\n      tag_85\n      jump\t// in\n    tag_150:\n        /* \"#utility.yul\":5510:5585   */\n      swap3\n      pop\n        /* \"#utility.yul\":5303:5595   */\n      pop\n        /* \"#utility.yul\":5290:5291   */\n      0x01\n        /* \"#utility.yul\":5287:5288   */\n      dup2\n        /* \"#utility.yul\":5283:5292   */\n      add\n        /* \"#utility.yul\":5278:5292   */\n      swap1\n      pop\n        /* \"#utility.yul\":5243:5595   */\n      jump(tag_145)\n    tag_147:\n        /* \"#utility.yul\":5247:5261   */\n      pop\n        /* \"#utility.yul\":5611:5614   */\n      dup6\n        /* \"#utility.yul\":5604:5614   */\n      swap4\n      pop\n        /* \"#utility.yul\":4908:5620   */\n      pop\n      pop\n      pop\n        /* \"#utility.yul\":4753:5620   */\n      swap3\n      swap2\n      pop\n      pop\n      jump\t// out\n        /* \"#utility.yul\":5626:6269   */\n    tag_54:\n        /* \"#utility.yul\":5857:5860   */\n      0x00\n        /* \"#utility.yul\":5872:5947   */\n      tag_152\n        /* \"#utility.yul\":5943:5946   */\n      dup3\n        /* \"#utility.yul\":5934:5940   */\n      dup7\n        /* \"#utility.yul\":5872:5947   */\n      tag_75\n      jump\t// in\n    tag_152:\n        /* \"#utility.yul\":5972:5974   */\n      0x20\n        /* \"#utility.yul\":5967:5970   */\n      dup3\n        /* \"#utility.yul\":5963:5975   */\n      add\n        /* \"#utility.yul\":5956:5975   */\n      swap2\n      pop\n        /* \"#utility.yul\":5985:6060   */\n      tag_153\n        /* \"#utility.yul\":6056:6059   */\n      dup3\n        /* \"#utility.yul\":6047:6053   */\n      dup6\n        /* \"#utility.yul\":5985:6060   */\n      tag_75\n      jump\t// in\n    tag_153:\n        /* \"#utility.yul\":6085:6087   */\n      0x20\n        /* \"#utility.yul\":6080:6083   */\n      dup3\n        /* \"#utility.yul\":6076:6088   */\n      add\n        /* \"#utility.yul\":6069:6088   */\n      swap2\n      pop\n        /* \"#utility.yul\":6105:6243   */\n      tag_154\n        /* \"#utility.yul\":6239:6242   */\n      dup3\n        /* \"#utility.yul\":6230:6236   */\n      dup5\n        /* \"#utility.yul\":6105:6243   */\n      tag_86\n      jump\t// in\n    tag_154:\n        /* \"#utility.yul\":6098:6243   */\n      swap2\n      pop\n        /* \"#utility.yul\":6260:6263   */\n      dup2\n        /* \"#utility.yul\":6253:6263   */\n      swap1\n      pop\n        /* \"#utility.yul\":5626:6269   */\n      swap5\n      swap4\n      pop\n      pop\n      pop\n      pop\n      jump\t// out\n\n    auxdata: 0xa2646970667358221220527300047691e67687d94c0da690163b1e98353a72f7ac949c0592bc82d6c3a364736f6c63430008110033\n}\n",
				"bytecode": {
					"linkReferences": {},
					"object": "608060405234801561001057600080fd5b50336000806101000a81548173ffffffffffffffffffffffffffffffffffffffff021916908373ffffffffffffffffffffffffffffffffffffffff1602179055506107b1806100606000396000f3fe60806040526004361061004a5760003560e01c8063481c6a751461004f5780635d495aea1461007a578063ba13a57214610091578063e97dcb62146100a8578063f71d96cb146100b2575b600080fd5b34801561005b57600080fd5b506100646100ef565b6040516100719190610486565b60405180910390f35b34801561008657600080fd5b5061008f610113565b005b34801561009d57600080fd5b506100a661026f565b005b6100b06102b1565b005b3480156100be57600080fd5b506100d960048036038101906100d491906104dc565b610329565b6040516100e6919061052a565b60405180910390f35b60008054906101000a900473ffffffffffffffffffffffffffffffffffffffff1681565b60008054906101000a900473ffffffffffffffffffffffffffffffffffffffff1673ffffffffffffffffffffffffffffffffffffffff163373ffffffffffffffffffffffffffffffffffffffff161461016b57600080fd5b600060018054905061017b610368565b6101859190610574565b90506001818154811061019b5761019a6105a5565b5b9060005260206000200160009054906101000a900473ffffffffffffffffffffffffffffffffffffffff1673ffffffffffffffffffffffffffffffffffffffff166108fc479081150290604051600060405180830381858888f1935050505015801561020b573d6000803e3d6000fd5b50600067ffffffffffffffff811115610227576102266105d4565b5b6040519080825280602002602001820160405280156102555781602001602082028036833780820191505090505b506001908051906020019061026b92919061039e565b5050565b336000806101000a81548173ffffffffffffffffffffffffffffffffffffffff021916908373ffffffffffffffffffffffffffffffffffffffff160217905550565b662386f26fc1000034116102c457600080fd5b6001339080600181540180825580915050600190039060005260206000200160009091909190916101000a81548173ffffffffffffffffffffffffffffffffffffffff021916908373ffffffffffffffffffffffffffffffffffffffff160217905550565b6001818154811061033957600080fd5b906000526020600020016000915054906101000a900473ffffffffffffffffffffffffffffffffffffffff1681565b60004442600160405160200161038093929190610742565b6040516020818303038152906040528051906020012060001c905090565b828054828255906000526020600020908101928215610417579160200282015b828111156104165782518260006101000a81548173ffffffffffffffffffffffffffffffffffffffff021916908373ffffffffffffffffffffffffffffffffffffffff160217905550916020019190600101906103be565b5b5090506104249190610428565b5090565b5b80821115610441576000816000905550600101610429565b5090565b600073ffffffffffffffffffffffffffffffffffffffff82169050919050565b600061047082610445565b9050919050565b61048081610465565b82525050565b600060208201905061049b6000830184610477565b92915050565b600080fd5b6000819050919050565b6104b9816104a6565b81146104c457600080fd5b50565b6000813590506104d6816104b0565b92915050565b6000602082840312156104f2576104f16104a1565b5b6000610500848285016104c7565b91505092915050565b600061051482610445565b9050919050565b61052481610509565b82525050565b600060208201905061053f600083018461051b565b92915050565b7f4e487b7100000000000000000000000000000000000000000000000000000000600052601260045260246000fd5b600061057f826104a6565b915061058a836104a6565b92508261059a57610599610545565b5b828206905092915050565b7f4e487b7100000000000000000000000000000000000000000000000000000000600052603260045260246000fd5b7f4e487b7100000000000000000000000000000000000000000000000000000000600052604160045260246000fd5b6000819050919050565b61061e610619826104a6565b610603565b82525050565b600081549050919050565b600081905092915050565b60008190508160005260206000209050919050565b61065881610509565b82525050565b600061066a838361064f565b60208301905092915050565b60008160001c9050919050565b600073ffffffffffffffffffffffffffffffffffffffff82169050919050565b60006106b66106b183610676565b610683565b9050919050565b60006106c982546106a3565b9050919050565b6000600182019050919050565b60006106e882610624565b6106f2818561062f565b93506106fd8361063a565b8060005b8381101561073557610712826106bd565b61071c888261065e565b9750610727836106d0565b925050600181019050610701565b5085935050505092915050565b600061074e828661060d565b60208201915061075e828561060d565b60208201915061076e82846106dd565b915081905094935050505056fea2646970667358221220527300047691e67687d94c0da690163b1e98353a72f7ac949c0592bc82d6c3a364736f6c63430008110033",
					"opcodes": "PUSH1 0x80 PUSH1 0x40 MSTORE CALLVALUE DUP1 ISZERO PUSH2 0x10 JUMPI PUSH1 0x0 DUP1 REVERT JUMPDEST POP CALLER PUSH1 0x0 DUP1 PUSH2 0x100 EXP DUP2 SLOAD DUP2 PUSH20 0xFFFFFFFFFFFFFFFFFFFFFFFFFFFFFFFFFFFFFFFF MUL NOT AND SWAP1 DUP4 PUSH20 0xFFFFFFFFFFFFFFFFFFFFFFFFFFFFFFFFFFFFFFFF AND MUL OR SWAP1 SSTORE POP PUSH2 0x7B1 DUP1 PUSH2 0x60 PUSH1 0x0 CODECOPY PUSH1 0x0 RETURN INVALID PUSH1 0x80 PUSH1 0x40 MSTORE PUSH1 0x4 CALLDATASIZE LT PUSH2 0x4A JUMPI PUSH1 0x0 CALLDATALOAD PUSH1 0xE0 SHR DUP1 PUSH4 0x481C6A75 EQ PUSH2 0x4F JUMPI DUP1 PUSH4 0x5D495AEA EQ PUSH2 0x7A JUMPI DUP1 PUSH4 0xBA13A572 EQ PUSH2 0x91 JUMPI DUP1 PUSH4 0xE97DCB62 EQ PUSH2 0xA8 JUMPI DUP1 PUSH4 0xF71D96CB EQ PUSH2 0xB2 JUMPI JUMPDEST PUSH1 0x0 DUP1 REVERT JUMPDEST CALLVALUE DUP1 ISZERO PUSH2 0x5B JUMPI PUSH1 0x0 DUP1 REVERT JUMPDEST POP PUSH2 0x64 PUSH2 0xEF JUMP JUMPDEST PUSH1 0x40 MLOAD PUSH2 0x71 SWAP2 SWAP1 PUSH2 0x486 JUMP JUMPDEST PUSH1 0x40 MLOAD DUP1 SWAP2 SUB SWAP1 RETURN JUMPDEST CALLVALUE DUP1 ISZERO PUSH2 0x86 JUMPI PUSH1 0x0 DUP1 REVERT JUMPDEST POP PUSH2 0x8F PUSH2 0x113 JUMP JUMPDEST STOP JUMPDEST CALLVALUE DUP1 ISZERO PUSH2 0x9D JUMPI PUSH1 0x0 DUP1 REVERT JUMPDEST POP PUSH2 0xA6 PUSH2 0x26F JUMP JUMPDEST STOP JUMPDEST PUSH2 0xB0 PUSH2 0x2B1 JUMP JUMPDEST STOP JUMPDEST CALLVALUE DUP1 ISZERO PUSH2 0xBE JUMPI PUSH1 0x0 DUP1 REVERT JUMPDEST POP PUSH2 0xD9 PUSH1 0x4 DUP1 CALLDATASIZE SUB DUP2 ADD SWAP1 PUSH2 0xD4 SWAP2 SWAP1 PUSH2 0x4DC JUMP JUMPDEST PUSH2 0x329 JUMP JUMPDEST PUSH1 0x40 MLOAD PUSH2 0xE6 SWAP2 SWAP1 PUSH2 0x52A JUMP JUMPDEST PUSH1 0x40 MLOAD DUP1 SWAP2 SUB SWAP1 RETURN JUMPDEST PUSH1 0x0 DUP1 SLOAD SWAP1 PUSH2 0x100 EXP SWAP1 DIV PUSH20 0xFFFFFFFFFFFFFFFFFFFFFFFFFFFFFFFFFFFFFFFF AND DUP2 JUMP JUMPDEST PUSH1 0x0 DUP1 SLOAD SWAP1 PUSH2 0x100 EXP SWAP1 DIV PUSH20 0xFFFFFFFFFFFFFFFFFFFFFFFFFFFFFFFFFFFFFFFF AND PUSH20 0xFFFFFFFFFFFFFFFFFFFFFFFFFFFFFFFFFFFFFFFF AND CALLER PUSH20 0xFFFFFFFFFFFFFFFFFFFFFFFFFFFFFFFFFFFFFFFF AND EQ PUSH2 0x16B JUMPI PUSH1 0x0 DUP1 REVERT JUMPDEST PUSH1 0x0 PUSH1 0x1 DUP1 SLOAD SWAP1 POP PUSH2 0x17B PUSH2 0x368 JUMP JUMPDEST PUSH2 0x185 SWAP2 SWAP1 PUSH2 0x574 JUMP JUMPDEST SWAP1 POP PUSH1 0x1 DUP2 DUP2 SLOAD DUP2 LT PUSH2 0x19B JUMPI PUSH2 0x19A PUSH2 0x5A5 JUMP JUMPDEST JUMPDEST SWAP1 PUSH1 0x0 MSTORE PUSH1 0x20 PUSH1 0x0 KECCAK256 ADD PUSH1 0x0 SWAP1 SLOAD SWAP1 PUSH2 0x100 EXP SWAP1 DIV PUSH20 0xFFFFFFFFFFFFFFFFFFFFFFFFFFFFFFFFFFFFFFFF AND PUSH20 0xFFFFFFFFFFFFFFFFFFFFFFFFFFFFFFFFFFFFFFFF AND PUSH2 0x8FC SELFBALANCE SWAP1 DUP2 ISZERO MUL SWAP1 PUSH1 0x40 MLOAD PUSH1 0x0 PUSH1 0x40 MLOAD DUP1 DUP4 SUB DUP2 DUP6 DUP9 DUP9 CALL SWAP4 POP POP POP POP ISZERO DUP1 ISZERO PUSH2 0x20B JUMPI RETURNDATASIZE PUSH1 0x0 DUP1 RETURNDATACOPY RETURNDATASIZE PUSH1 0x0 REVERT JUMPDEST POP PUSH1 0x0 PUSH8 0xFFFFFFFFFFFFFFFF DUP2 GT ISZERO PUSH2 0x227 JUMPI PUSH2 0x226 PUSH2 0x5D4 JUMP JUMPDEST JUMPDEST PUSH1 0x40 MLOAD SWAP1 DUP1 DUP3 MSTORE DUP1 PUSH1 0x20 MUL PUSH1 0x20 ADD DUP3 ADD PUSH1 0x40 MSTORE DUP1 ISZERO PUSH2 0x255 JUMPI DUP2 PUSH1 0x20 ADD PUSH1 0x20 DUP3 MUL DUP1 CALLDATASIZE DUP4 CALLDATACOPY DUP1 DUP3 ADD SWAP2 POP POP SWAP1 POP JUMPDEST POP PUSH1 0x1 SWAP1 DUP1 MLOAD SWAP1 PUSH1 0x20 ADD SWAP1 PUSH2 0x26B SWAP3 SWAP2 SWAP1 PUSH2 0x39E JUMP JUMPDEST POP POP JUMP JUMPDEST CALLER PUSH1 0x0 DUP1 PUSH2 0x100 EXP DUP2 SLOAD DUP2 PUSH20 0xFFFFFFFFFFFFFFFFFFFFFFFFFFFFFFFFFFFFFFFF MUL NOT AND SWAP1 DUP4 PUSH20 0xFFFFFFFFFFFFFFFFFFFFFFFFFFFFFFFFFFFFFFFF AND MUL OR SWAP1 SSTORE POP JUMP JUMPDEST PUSH7 0x2386F26FC10000 CALLVALUE GT PUSH2 0x2C4 JUMPI PUSH1 0x0 DUP1 REVERT JUMPDEST PUSH1 0x1 CALLER SWAP1 DUP1 PUSH1 0x1 DUP2 SLOAD ADD DUP1 DUP3 SSTORE DUP1 SWAP2 POP POP PUSH1 0x1 SWAP1 SUB SWAP1 PUSH1 0x0 MSTORE PUSH1 0x20 PUSH1 0x0 KECCAK256 ADD PUSH1 0x0 SWAP1 SWAP2 SWAP1 SWAP2 SWAP1 SWAP2 PUSH2 0x100 EXP DUP2 SLOAD DUP2 PUSH20 0xFFFFFFFFFFFFFFFFFFFFFFFFFFFFFFFFFFFFFFFF MUL NOT AND SWAP1 DUP4 PUSH20 0xFFFFFFFFFFFFFFFFFFFFFFFFFFFFFFFFFFFFFFFF AND MUL OR SWAP1 SSTORE POP JUMP JUMPDEST PUSH1 0x1 DUP2 DUP2 SLOAD DUP2 LT PUSH2 0x339 JUMPI PUSH1 0x0 DUP1 REVERT JUMPDEST SWAP1 PUSH1 0x0 MSTORE PUSH1 0x20 PUSH1 0x0 KECCAK256 ADD PUSH1 0x0 SWAP2 POP SLOAD SWAP1 PUSH2 0x100 EXP SWAP1 DIV PUSH20 0xFFFFFFFFFFFFFFFFFFFFFFFFFFFFFFFFFFFFFFFF AND DUP2 JUMP JUMPDEST PUSH1 0x0 DIFFICULTY TIMESTAMP PUSH1 0x1 PUSH1 0x40 MLOAD PUSH1 0x20 ADD PUSH2 0x380 SWAP4 SWAP3 SWAP2 SWAP1 PUSH2 0x742 JUMP JUMPDEST PUSH1 0x40 MLOAD PUSH1 0x20 DUP2 DUP4 SUB SUB DUP2 MSTORE SWAP1 PUSH1 0x40 MSTORE DUP1 MLOAD SWAP1 PUSH1 0x20 ADD KECCAK256 PUSH1 0x0 SHR SWAP1 POP SWAP1 JUMP JUMPDEST DUP3 DUP1 SLOAD DUP3 DUP3 SSTORE SWAP1 PUSH1 0x0 MSTORE PUSH1 0x20 PUSH1 0x0 KECCAK256 SWAP1 DUP2 ADD SWAP3 DUP3 ISZERO PUSH2 0x417 JUMPI SWAP2 PUSH1 0x20 MUL DUP3 ADD JUMPDEST DUP3 DUP2 GT ISZERO PUSH2 0x416 JUMPI DUP3 MLOAD DUP3 PUSH1 0x0 PUSH2 0x100 EXP DUP2 SLOAD DUP2 PUSH20 0xFFFFFFFFFFFFFFFFFFFFFFFFFFFFFFFFFFFFFFFF MUL NOT AND SWAP1 DUP4 PUSH20 0xFFFFFFFFFFFFFFFFFFFFFFFFFFFFFFFFFFFFFFFF AND MUL OR SWAP1 SSTORE POP SWAP2 PUSH1 0x20 ADD SWAP2 SWAP1 PUSH1 0x1 ADD SWAP1 PUSH2 0x3BE JUMP JUMPDEST JUMPDEST POP SWAP1 POP PUSH2 0x424 SWAP2 SWAP1 PUSH2 0x428 JUMP JUMPDEST POP SWAP1 JUMP JUMPDEST JUMPDEST DUP1 DUP3 GT ISZERO PUSH2 0x441 JUMPI PUSH1 0x0 DUP2 PUSH1 0x0 SWAP1 SSTORE POP PUSH1 0x1 ADD PUSH2 0x429 JUMP JUMPDEST POP SWAP1 JUMP JUMPDEST PUSH1 0x0 PUSH20 0xFFFFFFFFFFFFFFFFFFFFFFFFFFFFFFFFFFFFFFFF DUP3 AND SWAP1 POP SWAP2 SWAP1 POP JUMP JUMPDEST PUSH1 0x0 PUSH2 0x470 DUP3 PUSH2 0x445 JUMP JUMPDEST SWAP1 POP SWAP2 SWAP1 POP JUMP JUMPDEST PUSH2 0x480 DUP2 PUSH2 0x465 JUMP JUMPDEST DUP3 MSTORE POP POP JUMP JUMPDEST PUSH1 0x0 PUSH1 0x20 DUP3 ADD SWAP1 POP PUSH2 0x49B PUSH1 0x0 DUP4 ADD DUP5 PUSH2 0x477 JUMP JUMPDEST SWAP3 SWAP2 POP POP JUMP JUMPDEST PUSH1 0x0 DUP1 REVERT JUMPDEST PUSH1 0x0 DUP2 SWAP1 POP SWAP2 SWAP1 POP JUMP JUMPDEST PUSH2 0x4B9 DUP2 PUSH2 0x4A6 JUMP JUMPDEST DUP2 EQ PUSH2 0x4C4 JUMPI PUSH1 0x0 DUP1 REVERT JUMPDEST POP JUMP JUMPDEST PUSH1 0x0 DUP2 CALLDATALOAD SWAP1 POP PUSH2 0x4D6 DUP2 PUSH2 0x4B0 JUMP JUMPDEST SWAP3 SWAP2 POP POP JUMP JUMPDEST PUSH1 0x0 PUSH1 0x20 DUP3 DUP5 SUB SLT ISZERO PUSH2 0x4F2 JUMPI PUSH2 0x4F1 PUSH2 0x4A1 JUMP JUMPDEST JUMPDEST PUSH1 0x0 PUSH2 0x500 DUP5 DUP3 DUP6 ADD PUSH2 0x4C7 JUMP JUMPDEST SWAP2 POP POP SWAP3 SWAP2 POP POP JUMP JUMPDEST PUSH1 0x0 PUSH2 0x514 DUP3 PUSH2 0x445 JUMP JUMPDEST SWAP1 POP SWAP2 SWAP1 POP JUMP JUMPDEST PUSH2 0x524 DUP2 PUSH2 0x509 JUMP JUMPDEST DUP3 MSTORE POP POP JUMP JUMPDEST PUSH1 0x0 PUSH1 0x20 DUP3 ADD SWAP1 POP PUSH2 0x53F PUSH1 0x0 DUP4 ADD DUP5 PUSH2 0x51B JUMP JUMPDEST SWAP3 SWAP2 POP POP JUMP JUMPDEST PUSH32 0x4E487B7100000000000000000000000000000000000000000000000000000000 PUSH1 0x0 MSTORE PUSH1 0x12 PUSH1 0x4 MSTORE PUSH1 0x24 PUSH1 0x0 REVERT JUMPDEST PUSH1 0x0 PUSH2 0x57F DUP3 PUSH2 0x4A6 JUMP JUMPDEST SWAP2 POP PUSH2 0x58A DUP4 PUSH2 0x4A6 JUMP JUMPDEST SWAP3 POP DUP3 PUSH2 0x59A JUMPI PUSH2 0x599 PUSH2 0x545 JUMP JUMPDEST JUMPDEST DUP3 DUP3 MOD SWAP1 POP SWAP3 SWAP2 POP POP JUMP JUMPDEST PUSH32 0x4E487B7100000000000000000000000000000000000000000000000000000000 PUSH1 0x0 MSTORE PUSH1 0x32 PUSH1 0x4 MSTORE PUSH1 0x24 PUSH1 0x0 REVERT JUMPDEST PUSH32 0x4E487B7100000000000000000000000000000000000000000000000000000000 PUSH1 0x0 MSTORE PUSH1 0x41 PUSH1 0x4 MSTORE PUSH1 0x24 PUSH1 0x0 REVERT JUMPDEST PUSH1 0x0 DUP2 SWAP1 POP SWAP2 SWAP1 POP JUMP JUMPDEST PUSH2 0x61E PUSH2 0x619 DUP3 PUSH2 0x4A6 JUMP JUMPDEST PUSH2 0x603 JUMP JUMPDEST DUP3 MSTORE POP POP JUMP JUMPDEST PUSH1 0x0 DUP2 SLOAD SWAP1 POP SWAP2 SWAP1 POP JUMP JUMPDEST PUSH1 0x0 DUP2 SWAP1 POP SWAP3 SWAP2 POP POP JUMP JUMPDEST PUSH1 0x0 DUP2 SWAP1 POP DUP2 PUSH1 0x0 MSTORE PUSH1 0x20 PUSH1 0x0 KECCAK256 SWAP1 POP SWAP2 SWAP1 POP JUMP JUMPDEST PUSH2 0x658 DUP2 PUSH2 0x509 JUMP JUMPDEST DUP3 MSTORE POP POP JUMP JUMPDEST PUSH1 0x0 PUSH2 0x66A DUP4 DUP4 PUSH2 0x64F JUMP JUMPDEST PUSH1 0x20 DUP4 ADD SWAP1 POP SWAP3 SWAP2 POP POP JUMP JUMPDEST PUSH1 0x0 DUP2 PUSH1 0x0 SHR SWAP1 POP SWAP2 SWAP1 POP JUMP JUMPDEST PUSH1 0x0 PUSH20 0xFFFFFFFFFFFFFFFFFFFFFFFFFFFFFFFFFFFFFFFF DUP3 AND SWAP1 POP SWAP2 SWAP1 POP JUMP JUMPDEST PUSH1 0x0 PUSH2 0x6B6 PUSH2 0x6B1 DUP4 PUSH2 0x676 JUMP JUMPDEST PUSH2 0x683 JUMP JUMPDEST SWAP1 POP SWAP2 SWAP1 POP JUMP JUMPDEST PUSH1 0x0 PUSH2 0x6C9 DUP3 SLOAD PUSH2 0x6A3 JUMP JUMPDEST SWAP1 POP SWAP2 SWAP1 POP JUMP JUMPDEST PUSH1 0x0 PUSH1 0x1 DUP3 ADD SWAP1 POP SWAP2 SWAP1 POP JUMP JUMPDEST PUSH1 0x0 PUSH2 0x6E8 DUP3 PUSH2 0x624 JUMP JUMPDEST PUSH2 0x6F2 DUP2 DUP6 PUSH2 0x62F JUMP JUMPDEST SWAP4 POP PUSH2 0x6FD DUP4 PUSH2 0x63A JUMP JUMPDEST DUP1 PUSH1 0x0 JUMPDEST DUP4 DUP2 LT ISZERO PUSH2 0x735 JUMPI PUSH2 0x712 DUP3 PUSH2 0x6BD JUMP JUMPDEST PUSH2 0x71C DUP9 DUP3 PUSH2 0x65E JUMP JUMPDEST SWAP8 POP PUSH2 0x727 DUP4 PUSH2 0x6D0 JUMP JUMPDEST SWAP3 POP POP PUSH1 0x1 DUP2 ADD SWAP1 POP PUSH2 0x701 JUMP JUMPDEST POP DUP6 SWAP4 POP POP POP POP SWAP3 SWAP2 POP POP JUMP JUMPDEST PUSH1 0x0 PUSH2 0x74E DUP3 DUP7 PUSH2 0x60D JUMP JUMPDEST PUSH1 0x20 DUP3 ADD SWAP2 POP PUSH2 0x75E DUP3 DUP6 PUSH2 0x60D JUMP JUMPDEST PUSH1 0x20 DUP3 ADD SWAP2 POP PUSH2 0x76E DUP3 DUP5 PUSH2 0x6DD JUMP JUMPDEST SWAP2 POP DUP2 SWAP1 POP SWAP5 SWAP4 POP POP POP POP JUMP INVALID LOG2 PUSH5 0x6970667358 0x22 SLT KECCAK256 MSTORE PUSH20 0x47691E67687D94C0DA690163B1E98353A72F7 0xAC SWAP5 SWAP13 SDIV SWAP3 0xBC DUP3 0xD6 0xC3 LOG3 PUSH5 0x736F6C6343 STOP ADDMOD GT STOP CALLER "
				},
				"gasEstimates": {
					"creation": {
						"codeDepositCost": "393800",
						"executionCost": "24696",
						"totalCost": "418496"
					},
					"external": {
						"enter()": "48764",
						"lottery()": "24432",
						"manager()": "2489",
						"pickWinner()": "infinite",
						"players(uint256)": "5022"
					},
					"internal": {
						"random()": "infinite"
					}
				},
				"methodIdentifiers": {
					"enter()": "e97dcb62",
					"lottery()": "ba13a572",
					"manager()": "481c6a75",
					"pickWinner()": "5d495aea",
					"players(uint256)": "f71d96cb"
				}
			},
			"storageLayout": {
				"storage": [
					{
						"astId": 3,
						"contract": "contracts/Lottery.sol:Lottery",
						"label": "manager",
						"offset": 0,
						"slot": "0",
						"type": "t_address"
					},
					{
						"astId": 6,
						"contract": "contracts/Lottery.sol:Lottery",
						"label": "players",
						"offset": 0,
						"slot": "1",
						"type": "t_array(t_address_payable)dyn_storage"
					}
				],
				"types": {
					"t_address": {
						"encoding": "inplace",
						"label": "address",
						"numberOfBytes": "20"
					},
					"t_address_payable": {
						"encoding": "inplace",
						"label": "address payable",
						"numberOfBytes": "20"
					},
					"t_array(t_address_payable)dyn_storage": {
						"base": "t_address_payable",
						"encoding": "dynamic_array",
						"label": "address payable[]",
						"numberOfBytes": "32"
					}
				}
			},
			"userdoc": {
				"kind": "user",
				"methods": {},
				"version": 1
			}
		}
	}
}